:020000040800F2
:10000000D806002029020008DB1300086F12000840
:10001000D91300081704000809190008000000009F
:10002000000000000000000000000000E9150008CA
:100030001904000800000000DD130008EB1500089B
:10004000430200084302000843020008430200087C
:10005000430200084302000843020008430200086C
:10006000430200084302000843020008430200085C
:10007000430200084302000843020008430200084C
:10008000430200084302000843020008430200083C
:10009000430200084302000843020008430200082C
:1000A000430200084302000843020008430200081C
:1000B000430200084302000843020008430200080C
:1000C00043020008430200084302000843020008FC
:1000D0004302000843020008FD180008430200081C
:1000E00043020008430200084302000843020008DC
:1000F00043020008430200084302000843020008CC
:1001000043020008430200084302000843020008BB
:1001100043020008430200084302000843020008AB
:10012000430200084302000843020008430200089B
:10013000430200084302000843020008430200088B
:10014000430200084302000843020008430200087B
:10015000430200084302000843020008430200086B
:10016000430200084302000843020008430200085B
:100170004302000843020008430200080000000098
:10018000430200084302000800F002F800F03CF8C7
:100190000AA090E8000C82448344AAF10107DA45E2
:1001A00001D100F031F8AFF2090EBAE80F0013F0F8
:1001B000010F18BFFB1A43F001031847AC1D0000E4
:1001C000CC1D0000103A24BF78C878C1FAD8520775
:1001D00024BF30C830C144BF04680C6070470000C1
:1001E0000023002400250026103A28BF78C1FBD840
:1001F000520728BF30C148BF0B6070471FB501F0E0
:10020000A1FE1FBD10B510BD00F0CFF81146FFF7DD
:10021000F5FF01F047FD00F0EDF803B4FFF7F2FF42
:1002200003BC00F0F1F80000094880470948004786
:10023000FEE7FEE7FEE7FEE7FEE7FEE7FEE7FEE796
:10024000FEE7FEE704480549054A064B70470000F3
:100250008916000889010008D8000020D80600206F
:10026000D8020020D802002053EA020C00F0698076
:100270002DE9F04B4FF00006002B1FBFB3FA83F5BA
:1002800003FA05F424FA05F65E4012BF1643B2FAEB
:1002900082F502FA05F4C5F120051EBF22FA05FC1D
:1002A00044EA0C04203556EA044C4FEA144418BFC3
:1002B000641C4FF000084FF00009904271EB030CF2
:1002C00039D3002919BFB1FA81F701FA07F6B0FA5C
:1002D00080F700FA07F6C7F120071EBF20FA07FCD7
:1002E00046EA0C062037B6FBF4FCA7EB0507103FE7
:1002F00007F01F0BCBF120060CFA0BFB2CFA06F6CD
:1003000044BFB3460026202FA4BF5E464FF0000B2B
:100310005BEA060C08BF4FF0010B19EB0B09ABFBB6
:10032000027C48EB0608C01B06FB02CC0BFB03CC8F
:1003300071EB0C01C1E70B46024641464846BDE859
:10034000F08B13B54FF000004FF00001AFF30080C9
:10035000BDE81C4070474FF0000200B513469446BC
:100360009646203922BFA0E80C50A0E80C50B1F10D
:100370002001BFF4F7AF090728BFA0E80C5048BF21
:100380000CC05DF804EB890028BF40F8042B08BFBF
:10039000704748BF20F8022B11F0804F18BF00F8BB
:1003A000012B7047704770477047754600F028F87A
:1003B000AE4605006946534620F00700854618B052
:1003C00020B5FFF73FFFBDE820404FF000064FF09B
:1003D00000074FF000084FF0000B21F00701AC467A
:1003E000ACE8C009ACE8C009ACE8C009ACE8C00999
:1003F0008D4670470446AFF300802046FFF70DFF9F
:10040000004870477400002001491820ABBEFEE789
:10041000260002007047FEE7704772B6FEE7000054
:100420002DE9F05F3B4A3C4F911E3D4B08783D4C17
:100430003D4D12F800C081F801C0401C08703749DA
:100440003A4E3B4A3B484FF0080B4FF480494FF47B
:10045000005E4FF4805ABCF1080F18D2DFE80CF0B0
:1004600017040D19252E17380F6033481F602060C0
:1004700004202880A6F800B028E030480860186002
:100480002060A5F80090A6F800E0A2F800A0BDE862
:10049000F09F2B480860186020604FF400402880CF
:1004A000A6F80090A2F800E0F1E70F601860206065
:1004B000A5F800A0A6F800B0102007E008601860BA
:1004C0002060202028804020308080201080DEE7BF
:1004D00001F03CFB642000F091F801F017FA642071
:1004E00000F08CF801F032FB642000F087F801F096
:1004F0000DFA642000F082F801F028FB642000F07F
:100500007DF801F003FA642000F078F801F0FEF9BC
:10051000FCE7000016000020000802400800002050
:100520000C0000201000002000000020020000202D
:1005300004000020000402400000024000100240BD
:10054000000C02402DE9F0410446876D00F06AF985
:10055000064694F835000025022806D08020606504
:1005600084F834500120BDE8F0812068016821F052
:10057000160101602068416921F080014161206C11
:1005800008B9A06C20B12068016821F00801016061
:100590002068016821F0010101600CE000F042F9DF
:1005A000801B052807D920206065032084F83500CA
:1005B00084F83450D7E720680068C007EED194F87B
:1005C0005C103F208840B860012084F8350084F832
:1005D00034500020C7E790F83510022903D080215D
:1005E000416501207047052180F8351000680168D9
:1005F00021F00101016000207047000070B5044641
:1006000000F010F90546601C02D00448007804444C
:1006100000F008F9401BA042FAD370BD2000002072
:100620002DE9F84FDFF8BCA1002201250AF1040BE7
:1006300003264FF00F090BF1040E00BF0B6805FAFB
:1006400002F42340A34270D10F7907F00307012F72
:1006500001D0022F16D187684FEA420806FA08FC3B
:1006600027EA0C07D1F80CC00CFA08FC4CEA070C7E
:10067000C0F808C04768A7430C79C4F3001494403D
:100680003C4344600C79E443A4070AD0C4684FEAB1
:10069000420C06FA0CF7BC438F6807FA0CF72743A5
:1006A000C7600C7904F00304022C12D1D40800EBCB
:1006B000840CDCF820405707FF0E09FA07F824EAFB
:1006C0000804D1F8108008FA07F848EA0408CCF8C2
:1006D000208004684FEA420C06FA0CF7BC430F79FD
:1006E00007F0030707FA0CF7274307604C6814F478
:1006F000403F70D03C4C276847F48047276024680F
:1007000022F0030704F480440094384C07EB040CF7
:10071000DCF8084897074FEA177809FA08F7BC434E
:10072000334FB84202D1002724E054E0314FB842A1
:1007300001D101271EE0304FB84201D1022719E054
:100740002E4FB84201D1032714E02D4FB84201D1FA
:1007500004270FE02B4FB84201D105270AE02A4FAA
:10076000B84201D1062705E0284FB84201D107273A
:1007700000E0082707FA08F72743CCF80878DAF8EA
:1007800000405746D1F804C09C435FEACC3C00D5FA
:100790001C433C60DBF800405F46D1F804C09C433A
:1007A0005FEA8C3C00D51C433C60DEF80040774695
:1007B000D1F804C09C435FEACC2C00D51C433C60BC
:1007C000084F0C373C68D1F804C09C435FEA8C2C7E
:1007D00000D51C433C60521C102AFFF42FAFBDE82B
:1007E000F88F0000003C01404438024000300140D6
:1007F000000002400004024000080240000C0240D9
:10080000001002400014024000180240001C024088
:100810000069084000D0012070470AB1816170472B
:100820000904FBE7014880687047000020000020B1
:1008300002488168027811448160704720000020DE
:100840000B4810B5016841F400710160016841F482
:1008500080610160016841F480710160032000F053
:100860006FF80F2000F006F800F024F8002010BD0B
:10087000003C024070B50D4D04464FF47A71287863
:10088000B1FBF0F00A490968B1FBF0F000F00CFB95
:1008900048B9102C07D200222146501E00F030F833
:1008A00000206C6070BD012070BD000020000020A1
:1008B0002C0000200A4808B5016841F4804101601D
:1008C000006800F4804000900548001F016841F076
:1008D00080510160006800F08050009008BD000069
:1008E00044380240002809DB00F01F02012191403A
:1008F0004009800000F1E020C0F8001170470000BE
:10090000F0B40E4B1B680C46C3F30223C3F107057A
:10091000042D00D90425191D072901D2002300E068
:10092000DB1E012606FA05F1491E214099409E4032
:10093000761E16403143F0BC01F032B80CED00E0F9
:10094000064900F0070208684FF6FF03184040EA26
:100950000220034A10430860704700000CED00E0DD
:100960000000FA052DE9F0470E46050065D0DFF8D6
:100970001481D8F80000F7B200F00700B04207D2A7
:1009800088F80070D8F8000000F00700B04254D199
:1009900028683D4C810712D5400703D5206840F4F4
:1009A000E05020602878000703D5206840F46040BC
:1009B00020602068A96820F0F000084320602878B3
:1009C000C0072DD0304968680839012812D00228A4
:1009D00013D0032811D00968890700292DDA21686E
:1009E00021F0030101432160FFF71CFF814641F222
:1009F000883A0EE009688903EFE709688901ECE7A6
:100A0000FFF710FFA0EB0901514502D90320BDE813
:100A1000F0872068696800F00C00B0EB810FEFD11F
:100A2000D8F80010404601F00701B14207D907701D
:100A3000006800F00700B04201D00120E7E7287805
:100A4000400705D52068E96820F4E050084320609D
:100A50002878000706D52068296920F4604040EA1C
:100A6000C100206000F038F82168084AC1F3031182
:100A7000515CC8400649086006480068FFF7FAFE66
:100A80000020C4E7003C0240083802404E1F000826
:100A90002C00002024000020044805490068096853
:100AA000044AC1F38221515CC84070472C000020E9
:100AB000083802405E1F00080448054900680968BC
:100AC000044AC1F34231515CC84070472C000020F9
:100AD000083802405E1F0008154810B5006810F085
:100AE0000C02144813D01449042A0FD0082A0ED13E
:100AF0000F4C241F2268236802F03F025B0207D5D7
:100B00002068C0F38810A0FB010106E0084610BD74
:100B10002168C1F38811A1FB00010023FFF7A4FBAA
:100B20002168C1F30141491C4900B0FBF1F010BD3F
:100B3000083802400024F40040787D012DE9F84F88
:100B400004006ED02078DFF84C93C007A9F10405AB
:100B50004AD009F104000168C1F38101012908D0DC
:100B60000068C0F3810002280AD1D9F800004002D1
:100B700006D52868800337D560680028E1D033E0C7
:100B80006068B0F5803F10D0B0F5A02F286810D075
:100B900020F480302860286820F480202860606875
:100BA000A8B1FFF73FFE06460DE0286840F480300C
:100BB000F4E740F480202860F7E700BFFFF732FE3B
:100BC000801B642873D828688003F7D50CE0FFF7F2
:100BD00029FE064605E000BFFFF724FE801B6428BF
:100BE000F0D828688003F7D42078DFF8AC8280073B
:100BF0004FF0000A3ED5A748001D016811F00C0F08
:100C000008D00068C0F3810002280BD1D9F8000099
:100C1000400207D42868800716D5E068012800D173
:100C200012E033E1E068B8B10120C8F80000FFF736
:100C3000F9FD064605E000BFFFF7F4FD801B022822
:100C4000C0D828688007F7D52868216920F0F80007
:100C500040EAC10028600DE0C8F800A0FFF7E2FDFF
:100C6000064604E0FFF7DEFD801B02281FD8286837
:100C70008007F7D42078000722D5864F874861691E
:100C8000703771B101210160FFF7CCFD064604E029
:100C9000FFF7C8FD801B022809D838688007F7D500
:100CA0000EE0C0F800A0FFF7BDFD064605E082E0BB
:100CB000FFF7B8FD801B02287DD838688007F7D47D
:100CC0002078400768D5DFF8CCB100270BF13C0B4A
:100CD000DBF80000C0000BD4DBF8001041F08051BD
:100CE000CBF80010DBF80000012700F080500090E6
:100CF0006B4E3068C00510D4306840F480703060AE
:100D0000FFF790FD009005E0FFF78CFD0099401A79
:100D1000022850D83068C005F6D55E4EA0686C3603
:100D200001280FD00528306810D020F00100306075
:100D3000306820F004003060A068B8B1FFF772FDA1
:100D400000900FE0306840F00100F4E740F004004C
:100D50003060F7E7FFF766FD0099411A41F28830ED
:100D6000814266D830688007F4D50EE0FFF75AFD5F
:100D7000009007E0FFF756FD0099411A41F28830D4
:100D8000814256D830688007F4D42FB1DBF80010C8
:100D900021F08051CBF80010A069C8B33D49091D6E
:100DA0000968C1F3810102294AD00228504607D0C0
:100DB000C8F8600000E03CE0FFF734FD04463BE08B
:100DC0004746C8F86000FFF72DFD064605E000BF66
:100DD000FFF728FD801B02282BD828688001F7D454
:100DE000D4E907010843A16A2E4A490802EB0141F0
:100DF000626A41EA8211084394F82C1040EA0161CA
:100E0000C9F8001001203866FFF70CFD044606E023
:100E10003EE000BFFFF706FD001B022809D8286846
:100E20008001F7D534E000BFFFF7FCFC001B02286F
:100E300002D90320BDE8F88F28688001F4D427E0A8
:100E40000128F7D0D9F80000E26900F4800191424E
:100E50001CD1226A00F03F01914217D147F6C071C0
:100E6000626A0140B1EB821F10D1A26A4FF0FF33DA
:100E700000F4403103EB5202B1EB024F06D194F87B
:100E80002C1000F07060B0EB016F01D00120D1E7B1
:100E90000020CFE70438024000004742800E47425E
:100EA000007000400000FFFF10B5401EB0F1807FD1
:100EB00001D3012010BD4FF0E02460610F216017C5
:100EC00000F06EFD0020A06107202061002010BD11
:100ED00070477047F8B5016804460868CA684B69EE
:100EE00010F00F0F4FF000055AD003F0010602F486
:100EF0009077374365D0C10705D0D10503D5216C64
:100F000041F001012164410705D5D90703D0216CC7
:100F100041F002012164810705D5D90703D0216C76
:100F200041F004012164010707D502F0200131439B
:100F300003D0216C41F008012164216C00293BD0D1
:100F4000800604D5900602D5204600F0D4FB206828
:100F50004069216CC0F3801001F008010143204674
:100F60002BD000F0A1FB20684069400621D5206805
:100F7000143050E8001F21F0400140E80012002A20
:100F8000F5D1A06BA8B16C490165A06BFFF723FBFD
:100F9000002811D0A06B016D01B0BDE8F0400847FA
:100FA00083060ED593060CD52046BDE8F84000F028
:100FB000A2BB2046FFF78DFFF8BDFFF78AFF25642F
:100FC000F8BD266B2023012E79D1C60677D5D6062B
:100FD00075D50868486800904869400640D5A16BFF
:100FE000086840680004000CEAD0A28D8242E7D96C
:100FF000E085C869B0F5807F2DD020680C3050E8BE
:10100000001F21F4807140E80012002AF5D1206809
:10101000143050E8001F21F0010140E80012002ABE
:10102000F5D12068143050E8001F21F0400140E85D
:101030000012002AF5D184F83E30256320680C3078
:1010400050E8001F21F0100140E80012002AF5D1FD
:10105000A06BFFF777FAA08DE18D401A81B229E0ED
:10106000A08DE18D401A81B2E08D0028A8D0002922
:10107000A6D020680C3050E8002F22F4907240E88F
:101080000026002EF5D12068143050E8002F22F001
:10109000010240E80026002EF5D184F83E30256399
:1010A00020680C3050E8002F22F0100240E80023A6
:1010B000002BF5D12046FFF70BFFF8BDFFE7050633
:1010C0002BD5150629D594F83D002128F5D1A06827
:1010D000B0F5805F01D12069B0B1206A411C216266
:1010E000216800784860E08C401E0004000CE08419
:1010F000E3D12068C16821F08001C1602068C16827
:1011000041F04001C160D8E7206A0088C0F30800C0
:101110004860206A801C2062E5E74006CDD5500675
:10112000CBD5CA68204622F04002CA6084F83D3020
:1011300000F09CF8C1E700009916000870B50400A3
:1011400004D094F83D00002510B106E0012070BDE8
:1011500084F83C50204600F023F8242084F83D0019
:101160002068C16821F40051C160204600F024FBD2
:101170002068016921F4904101612068416921F0F2
:101180002A0141612068C16841F40051C1602564B1
:10119000202084F83D0084F83E00002070BD00004F
:1011A00010B586B0044614216846FFF7D4F81749F5
:1011B0002068884228D116480021026842F4003293
:1011C0000260006800F40030059011481038026891
:1011D00042F008020260006800F0080005906020FC
:1011E00000900220CDE90101032003900720049024
:1011F00069460848FFF714FA002211462620FFF737
:101200007FFB2620FFF76EFB06B010BD00440040B8
:1012100040380240000C024090F83E30202B0ED1A6
:1012200059B152B190F83C30012B08D0012380F81D
:101230003C300023036300F045BB012070470220CF
:101240007047000010B5012206490748FFF7E4FF88
:1012500004480078012803D1BDE8104000F0FFBC2D
:1012600010BD00001C000020300000207047FEE789
:101270002DE9F04F87B014216846FFF76CF842481B
:10128000016841F004010160016801F00401059169
:10129000016841F080010160016801F08001059161
:1012A000016841F001010160016801F0010105914F
:1012B000016841F010010160016801F01001059121
:1012C000016841F008010160016801F00801059121
:1012D000016841F0020101600068DFF8B0A000F091
:1012E000020041F20C040590002221465046FFF70F
:1012F00094FADFF89CB040F2FC7600223146584662
:10130000FFF78BFA47F20107002239462148FFF721
:1013100084FA4FF46048002241461F48FFF77DFAE7
:101320004FF47E79002249461C48FFF776FA009474
:1013300001240325694650460194CDE90245FFF793
:101340006FF9CDE9006469465846CDE90245FFF7DB
:1013500067F9CDE9007469460E48CDE90245FFF70B
:101360005FF9CDE9008469460B48CDE90245FFF7F6
:1013700057F9CDE9009469460848CDE90245FFF7E1
:101380004FF907B0BDE8F08F303802400008024046
:101390000000024000100240000C02400004024025
:1013A0000C4810B50A4901604FF4E1314160002159
:1013B00081600C22C160C0E904128161C161FFF744
:1013C000BDFE002803D0BDE81040FFF726B810BDD1
:1013D0000044004030000020FEE7FEE770470000B8
:1013E00010B5094C01222188A068FFF716FA0620E3
:1013F00000F06EFB00222188A068FFF70EFABDE81E
:101400001040152000F064BB0000002010B5094C0E
:1014100001222188A068FFF700FA192000F058FB8C
:1014200000222188A068FFF7F8F9BDE810400320EA
:1014300000F04EBB0000002070B514460D4600F0D1
:1014400008F8284600F005F82046BDE87040AFF3E4
:10145000008070B504460025200602D5FFF7D6FFB0
:1014600001E0FFF7BDFF60066D1C040EEDB2082D14
:10147000F2D370BD10B5094C01226188E068FFF716
:10148000CCF9062000F024FB00226188E068FFF719
:10149000C4F9BDE81040152000F01ABB0000002080
:1014A00010B5094C01226188E068FFF7B6F91920F0
:1014B00000F00EFB00226188E068FFF7AEF9BDE89E
:1014C0001040032000F004BB0000002070B514465B
:1014D0000D4600F008F8284600F005F82046BDE863
:1014E0007040AFF3008070B504460025200602D599
:1014F000FFF7D6FF01E0FFF7BDFF60066D1C040E8D
:10150000EDB2082DF2D370BD10B5094C0122A188AF
:101510002069FFF782F9062000F0DAFA0022A1889C
:101520002069FFF77AF9BDE81040152000F0D0BA25
:101530000000002010B5094C0122A1882069FFF7A6
:101540006CF9192000F0C4FA0022A1882069FFF785
:1015500064F9BDE81040032000F0BABA0000002092
:1015600070B514460D4600F008F8284600F005F85E
:101570002046BDE87040AFF3008070B504460025FA
:10158000200602D5FFF7D6FF01E0FFF7BDFF60069A
:101590006D1C040EEDB2082DF2D370BD10B500F035
:1015A000FEFA6420FFF72AF800F004FC6420FFF73D
:1015B00025F800F09BFC6420FFF720F800F023FBE7
:1015C0006420FFF71BF800F089FA6420FFF716F893
:1015D00000F054FC6420FFF711F800F019FCBDE89E
:1015E00010406420FFF70AB87047FFF721B90000E8
:1015F00030B593B030216846FEF7ADFE14210CA83B
:10160000FEF7A9FE1E480025016841F080510160E7
:10161000006800F0805011901A48016841F4804140
:1016200001600068022400F48040119001200090C5
:10163000000401908001CDE90640192008904FF484
:10164000A870CDE9090404200B906846FFF776FAEC
:1016500008B172B6FEE70CA90F2081E831004FF403
:10166000A0500F904FF48050109005210CA8FFF768
:1016700079F9002801D072B6FEE713B030BD000042
:1016800040380240007000400248016841F4700197
:101690000160704788ED00E010B5806B0021C185C6
:1016A000C184FFF716FC10BD01680C3151E8002F12
:1016B00022F4907241E80023002BF5D10168143127
:1016C00051E8002F22F0010241E80023002BF5D160
:1016D000016B012909D101680C3151E8002F22F07A
:1016E000100241E80023002BF5D1202180F83E10A4
:1016F00000210163704708B590F83E10222901D0FF
:10170000022008BD82684FF480539A4201D10169DA
:1017100021B1816A9A421BD04AB10AE00268816A0B
:101720005268C2F308020A80816A891C08E00269D3
:1017300072B10268526802F07F020A70816A491C25
:101740008162C18D491E0904090CC18503D019E0CD
:1017500002685268F1E70168CA6822F02002CA6094
:101760000168CA6822F48072CA6001684A6922F07E
:1017700001024A61202180F83E10016B012903D04B
:10178000FFF760FD002008BD0021016301680C31F6
:1017900051E8002F22F0100241E80023002BF5D180
:1017A00001680A68D20602D50A6849680091818DED
:1017B000FFF78EFBE6E7000070B50446006801699C
:1017C000E26821F44051114301612169A068E26996
:1017D00008436169114308432168CA6849F20C63F0
:1017E0009A430243CA6020684169A26921F44071AA
:1017F0001143416131492068884202D03049884212
:1018000002D1FFF759F901E0FFF746F9E269002339
:10181000192164253226B2F5004F626828D0A0FB5A
:101820000101930F9200FEF71FFD0146B0FBF5F09A
:101830006FF01802504301EB800006EB0010B0FB84
:10184000F5F000F0F002B1FBF5F002EB0012B1FB95
:10185000F5F06FF01803584301EB800006EB001021
:10186000B0FBF5F000F00F0021681044886070BDF7
:10187000A0FB010192185B41FEF7F6FC0146B0FBAC
:10188000F5F00201B1FBF5F06FF01803584301EBDE
:10189000800006EBC000B0FBF5F000F0F80002EBB2
:1018A0004002B1FBF5F0584301EB800006EBC000AD
:1018B000B0FBF5F000F00700D6E700000010014093
:1018C0000014014081628285C285002101642222C8
:1018D00080F83E2080F83C100168CA6842F48072AB
:1018E000CA6001684A6942F001024A610068C16841
:1018F00041F02001C1600020704700000148FFF75F
:10190000E9BA000030000020FEE700002DE9F041B8
:1019100001244FF4D978204600F072F801273E46A2
:101920003D46002211461046FFF786FD7F1C822FA0
:10193000F7DD4746002211461046FFF7C7FD761C2B
:10194000BE42F7DD002211461046FFF709FE6D1C6E
:10195000902DF7DD641C062CDDDB0A4908480E4A91
:101960000860094908600A490848086009490420D4
:1019700008800821118009490880BDE8F081000035
:1019800000080240080000200C0000200000024077
:1019900010000020000000200200002004000020B1
:1019A0000907090E002804DB00F1E02080F800148C
:1019B000704700F00F0000F1E02080F8141D704720
:1019C00070B501252C4601E0442D02DC00221146B1
:1019D00001E00022FF210020FFF72EFD6D1C822D6B
:1019E000F2DD01E0442C02DC0022114601E000227D
:1019F000FF210020FFF7B4FD641C902CF2DD70BDC8
:101A00002DE9F04FDFF89CC0274A284B284C294D80
:101A1000294E2A4F2A494FF0080B4FF480494FF4C2
:101A2000005E4FF4805A062819D2DFE800F0180350
:101A30000E1A2630C2F800C02248C3F800C0206049
:101A400004202880A6F800B029E01F481060186024
:101A50002060A5F80090A6F800E0A7F800A0BDE877
:101A6000F08F1A481060186020604FF40040288002
:101A7000A6F80090A7F800E0F1E7C2F800C01960EE
:101A80002160A5F800A0A6F800B0102007E01160C2
:101A900019602020216028804020308080203880FC
:101AA000DDE7000000080240080000200C000020D4
:101AB0001000002000000020020000200400002090
:101AC000000402400000024000100240000C0240EE
:101AD00001E0401E80B20028FBD170472DE9F041A3
:101AE000042401250BE0082C01D1012407E0052C7A
:101AF00005DB0022FF211046FFF7E8FC0AE0002288
:101B000011461046FFF7E2FC40F2371640F2751717
:101B10004FF4D9786D1C3F2D09D07D2D0BD0BB2DF6
:101B200007D0F92D07D0B54207D10424DFE70524FB
:101B3000DDE70624DBE70224D9E7BD4201D1042416
:101B4000DDE7641C4545CEDDBDE8F0812DE9F041BF
:101B500001244FF4D9782046FFF752FF01273E4673
:101B60003D460022FF211046FFF766FC7F1C902FA8
:101B7000F7DD47460022FF211046FFF7A7FC761C41
:101B8000BE42F7DD0022FF211046FFF7E9FC6D1C85
:101B9000822DF7DD641C062CDDDBBDE8F0812DE92C
:101BA000F0410124254609E0082C25D0052C05DB51
:101BB0000022FF211046FFF789FC0AE000221146AF
:101BC0001046FFF783FC40F2371640F275174FF4CA
:101BD000D9786D1C3F2D07D07D2D09D0BB2D05D0A8
:101BE000F92D05D0B54205D10724DFE70224DDE752
:101BF0000624DBE7BD4201D10124DFE7641C454533
:101C0000D2DDBDE8F08170B50524012505E0082C82
:101C100001D1012404E0052C02DB0022FF2101E0B8
:101C2000002211460020FFF751FC6D1C3F2D10D003
:101C30007D2D0ED0BB2D0ED0F92D0AD0A5F58070CC
:101C4000373806D03E3808D0641CB5F5D97FDEDDC4
:101C500070BD0324DFE70524DDE70524DDE770B56B
:101C60000126354634460022FF211046FFF7E4FBEB
:101C7000761C902EF7DD4FF4D9760022FF21104616
:101C8000FFF724FC6D1CB542F7DD0022FF21104652
:101C9000FFF766FC641C822CF7DDBDE87040FEF7A0
:101CA000BFBB0000FEF7CCFDFFF7A2FCFFF7E0FA98
:101CB000FFF776FBFFF72AFE0320FFF7A1FE394E60
:101CC0005FEAA654FFF77CFEFFF768FC214630462A
:101CD000FEF79EFD0028F5D13220FEF78FFC21464D
:101CE0003046FEF795FD0128ECD1FFF7B8FF4FF421
:101CF000007500BFFFF764FEFFF750FC2946304631
:101D0000FEF786FD0028F5D13220FEF777FC294644
:101D10003046FEF77DFD0128ECD1FFF7A0FF224EF3
:101D2000FFF74EFEFFF73AFC21463046FEF770FD06
:101D30000028F5D13220FEF761FC21463046FEF73F
:101D400067FD0128ECD1FFF78AFF184CFFF738FE3A
:101D5000FFF724FC29462046FEF75AFD0028F5D15E
:101D60003220FEF74BFC29462046FEF751FD0128A4
:101D7000ECD1FFF774FF0E4CFFF722FEFFF70EFCCD
:101D800002212046FEF744FD0028F5D13220FEF75F
:101D900035FC02212046FEF73BFD0128ECD1FFF780
:101DA0005EFFE9E700080240000002400004024034
:101DB0000010024070B50724012505E0082C01D170
:101DC000012404E0052C02DB0022FF2101E00022B7
:101DD00011460020FFF77AFB6D1C3F2D10D07D2DA2
:101DE00012D0BB2D0ED0F92D0ED0A5F5807037384E
:101DF00006D03E380AD0641CB5F5D97FDEDD70BD53
:101E00000124DFE70324DDE70524DBE70724DBE724
:101E10002DE9F041022401250BE0082C01D1012419
:101E200007E0052C05DB0022FF211046FFF74EFBE3
:101E30000AE0002211461046FFF748FB40F2371631
:101E400040F275174FF4D9786D1C3F2D0BD07D2DC6
:101E500009D0BB2D05D0F92D05D0B54205D10624FA
:101E6000DFE70124DDE70724DBE7BD4201D10224DF
:101E7000DFE7641C4545D0DDBDE8F0812DE9F04188
:101E8000032401250BE0082C01D1012407E0052CD7
:101E900005DB0022FF211046FFF718FB0AE00022B5
:101EA00011461046FFF712FB40F2371640F2751745
:101EB0004FF4D9786D1C3F2D09D07D2D0BD0BB2D53
:101EC00007D0F92D07D0B54207D10524DFE7062456
:101ED000DDE70724DBE70124D9E7BD4201D1032474
:101EE000DDE7641C4545CEDDBDE8F08170B5062414
:101EF000012505E0082C01D1012404E0052C02DBBA
:101F00000022FF2101E0002211460020FFF7DEFA47
:101F10006D1C3F2D10D07D2D10D0BB2D0ED0F92D76
:101F20000CD0A5F58070373806D03E3808D0641C38
:101F3000B5F5D97FDEDD70BD0224DFE70424DDE7DF
:101F40000624DDE74FF04070E1EE100A7047000014
:101F50000000000000000102030406070809000059
:101F60000000010203040000881F00080000002098
:101F700030000000C4010008B81F00083000002035
:101F8000A8060000E00100080000000000000000BA
:101F90000000000000000000000000000100030439
:101FA0000205010700000000010000001000000011
:081FB000000000000024F40011
:040000050800018965
:00000001FF
