:020000040800F2
:10000000D806002029020008A7130008571200088C
:10001000A513000817040008D51800080000000008
:10002000000000000000000000000000B5150008FE
:100030001904000800000000A9130008B715000803
:10004000430200084302000843020008430200087C
:10005000430200084302000843020008430200086C
:10006000430200084302000843020008430200085C
:10007000430200084302000843020008430200084C
:10008000430200084302000843020008430200083C
:10009000430200084302000843020008430200082C
:1000A000430200084302000843020008430200081C
:1000B000430200084302000843020008430200080C
:1000C00043020008430200084302000843020008FC
:1000D0004302000843020008C91800084302000850
:1000E00043020008430200084302000843020008DC
:1000F00043020008430200084302000843020008CC
:1001000043020008430200084302000843020008BB
:1001100043020008430200084302000843020008AB
:10012000430200084302000843020008430200089B
:10013000430200084302000843020008430200088B
:10014000430200084302000843020008430200087B
:10015000430200084302000843020008430200086B
:10016000430200084302000843020008430200085B
:100170004302000843020008430200080000000098
:10018000430200084302000800F002F800F03CF8C7
:100190000AA090E8000C82448344AAF10107DA45E2
:1001A00001D100F031F8AFF2090EBAE80F0013F0F8
:1001B000010F18BFFB1A43F001031847881C000009
:1001C000A81C0000103A24BF78C878C1FAD852079A
:1001D00024BF30C830C144BF04680C6070470000C1
:1001E0000023002400250026103A28BF78C1FBD840
:1001F000520728BF30C148BF0B6070471FB501F0E0
:100200000FFE1FBD10B510BD00F0CFF81146FFF76F
:10021000F5FF01F021FD00F0EDF803B4FFF7F2FF68
:1002200003BC00F0F1F80000094880470948004786
:10023000FEE7FEE7FEE7FEE7FEE7FEE7FEE7FEE796
:10024000FEE7FEE704480549054A064B70470000F3
:100250005516000889010008D8000020D8060020A3
:10026000D8020020D802002053EA020C00F0698076
:100270002DE9F04B4FF00006002B1FBFB3FA83F5BA
:1002800003FA05F424FA05F65E4012BF1643B2FAEB
:1002900082F502FA05F4C5F120051EBF22FA05FC1D
:1002A00044EA0C04203556EA044C4FEA144418BFC3
:1002B000641C4FF000084FF00009904271EB030CF2
:1002C00039D3002919BFB1FA81F701FA07F6B0FA5C
:1002D00080F700FA07F6C7F120071EBF20FA07FCD7
:1002E00046EA0C062037B6FBF4FCA7EB0507103FE7
:1002F00007F01F0BCBF120060CFA0BFB2CFA06F6CD
:1003000044BFB3460026202FA4BF5E464FF0000B2B
:100310005BEA060C08BF4FF0010B19EB0B09ABFBB6
:10032000027C48EB0608C01B06FB02CC0BFB03CC8F
:1003300071EB0C01C1E70B46024641464846BDE859
:10034000F08B13B54FF000004FF00001AFF30080C9
:10035000BDE81C4070474FF0000200B513469446BC
:100360009646203922BFA0E80C50A0E80C50B1F10D
:100370002001BFF4F7AF090728BFA0E80C5048BF21
:100380000CC05DF804EB890028BF40F8042B08BFBF
:10039000704748BF20F8022B11F0804F18BF00F8BB
:1003A000012B7047704770477047754600F028F87A
:1003B000AE4605006946534620F00700854618B052
:1003C00020B5FFF73FFFBDE820404FF000064FF09B
:1003D00000074FF000084FF0000B21F00701AC467A
:1003E000ACE8C009ACE8C009ACE8C009ACE8C00999
:1003F0008D4670470446AFF300802046FFF70DFF9F
:10040000004870477400002001491820ABBEFEE789
:10041000260002007047FEE7704772B6FEE7000054
:100420002DE9F047384A3C4B911E3C4C08783C4D36
:100430003C4E175C4F70401C087034483449354AB4
:100440004FF4807C4FF40079082F2CD2DFE807F0BE
:100450002B040D16212D2B39086010601860202008
:1004600020804020288080201CE0086010601860F8
:100470001020208008202880042013E02A480860EB
:10048000106018604FF40040208040102880401019
:1004900008E0086010601860A4F800C0A5F800909B
:1004A0004FF480603080BDE8F08720480860204825
:1004B0001060186001202080A5F80090A6F800C008
:1004C000F1E701F01DFB642000F090F801F004FA60
:1004D000642000F08BF801F013FB642000F086F834
:1004E00001F0FAF9642000F081F801F009FB6420C2
:1004F00000F07CF801F0F0F9642000F077F800BF1C
:1005000001F0EAF9FCE700001600002000000240BC
:10051000080000200C000020100000200000002037
:100520000200002004000020000C024000100240E5
:10053000000402402DE9F0410446876D00F066F9A1
:10054000064694F835000025022806D08020606514
:1005500084F834500120BDE8F0812068016821F062
:10056000160101602068416921F080014161206C21
:1005700008B9A06C20B12068016821F00801016071
:100580002068016821F0010101600CE000F03EF9F3
:10059000801B052807D920206065032084F83500DA
:1005A00084F83450D7E720680068C007EED194F88B
:1005B0005C103F208840B860012084F8350084F842
:1005C00034500020C7E790F83510022903D080216D
:1005D000416501207047052180F8351000680168E9
:1005E00021F00101016000207047000070B5044651
:1005F00000F00CF90546601C02D004480078044461
:1006000000F004F9401BA042FAD370BD2000002086
:100610002DE9F84FDFF8BCA1002201250AF1040BF7
:1006200003264FF00F090BF1040E00BF0B6805FA0B
:1006300002F42340A34270D10F7907F00307012F82
:1006400001D0022F16D187684FEA420806FA08FC4B
:1006500027EA0C07D1F80CC00CFA08FC4CEA070C8E
:10066000C0F808C04768A7430C79C4F3001494404D
:100670003C4344600C79E443A4070AD0C4684FEAC1
:10068000420C06FA0CF7BC438F6807FA0CF72743B5
:10069000C7600C7904F00304022C12D1D40800EBDB
:1006A000840CDCF820405707FF0E09FA07F824EA0B
:1006B0000804D1F8108008FA07F848EA0408CCF8D2
:1006C000208004684FEA420C06FA0CF7BC430F790D
:1006D00007F0030707FA0CF7274307604C6814F488
:1006E000403F70D03C4C276847F48047276024681F
:1006F00022F0030704F480440094384C07EB040C08
:10070000DCF8084897074FEA177809FA08F7BC435E
:10071000334FB84202D1002724E054E0314FB842B1
:1007200001D101271EE0304FB84201D1022719E064
:100730002E4FB84201D1032714E02D4FB84201D10A
:1007400004270FE02B4FB84201D105270AE02A4FBA
:10075000B84201D1062705E0284FB84201D107274A
:1007600000E0082707FA08F72743CCF80878DAF8FA
:1007700000405746D1F804C09C435FEACC3C00D50A
:100780001C433C60DBF800405F46D1F804C09C434A
:100790005FEA8C3C00D51C433C60DEF800407746A5
:1007A000D1F804C09C435FEACC2C00D51C433C60CC
:1007B000084F0C373C68D1F804C09C435FEA8C2C8E
:1007C00000D51C433C60521C102AFFF42FAFBDE83B
:1007D000F88F0000003C01404438024000300140E6
:1007E000000002400004024000080240000C0240E9
:1007F000001002400014024000180240001C024099
:100800000AB1816170470904FBE700000148806874
:1008100070470000200000200248816802781144DF
:1008200081607047200000200B4810B5016841F43A
:1008300000710160016841F480610160016841F468
:1008400080710160032000F06FF80F2000F006F8BF
:1008500000F024F8002010BD003C024070B50D4DA2
:1008600004464FF47A712878B1FBF0F00A49096820
:10087000B1FBF0F000F00CFB48B9102C07D20022BD
:100880002146501E00F030F800206C6070BD012041
:1008900070BD0000200000202C0000200A4808B590
:1008A000016841F480410160006800F480400090DC
:1008B0000548001F016841F080510160006800F0A8
:1008C0008050009008BD000044380240002809DB39
:1008D00000F01F02012191404009800000F1E0205A
:1008E000C0F8001170470000F0B40E4B1B680C46B6
:1008F000C3F30223C3F10705042D00D90425191DF4
:10090000072901D2002300E0DB1E012606FA05F1CB
:10091000491E214099409E40761E16403143F0BC4E
:1009200001F022B80CED00E0064900F0070208686B
:100930004FF6FF03184040EA0220034A10430860C4
:10094000704700000CED00E00000FA052DE9F047CB
:100950000E46050065D0DFF81481D8F80000F7B224
:1009600000F00700B04207D288F80070D8F8000005
:1009700000F00700B04254D128683D4C810712D5E1
:10098000400703D5206840F4E05020602878000735
:1009900003D5206840F4604020602068A96820F0FA
:1009A000F000084320602878C0072DD030496868DF
:1009B0000839012812D0022813D0032811D0096861
:1009C000890700292DDA216821F003010143216004
:1009D000FFF71CFF814641F2883A0EE0096889035F
:1009E000EFE709688901ECE7FFF710FFA0EB0901C9
:1009F000514502D90320BDE8F0872068696800F0FE
:100A00000C00B0EB810FEFD1D8F80010404601F098
:100A10000701B14207D90770006800F00700B04233
:100A200001D00120E7E72878400705D52068E9686C
:100A300020F4E050084320602878000706D520689D
:100A4000296920F4604040EAC100206000F038F8D5
:100A50002168084AC1F30311515CC8400649086087
:100A600006480068FFF7FAFE0020C4E7003C024099
:100A7000083802402A1E00082C0000202400002014
:100A80000448054900680968044AC1F38221515CA1
:100A9000C84070472C000020083802403A1E000869
:100AA0000448054900680968044AC1F34231515CB1
:100AB000C84070472C000020083802403A1E000849
:100AC000154810B5006810F00C02144813D01449F2
:100AD000042A0FD0082A0ED10F4C241F2268236845
:100AE00002F03F025B0207D52068C0F38810A0FB2C
:100AF000010106E0084610BD2168C1F38811A1FB81
:100B000000010023FFF7B0FB2168C1F30141491C3C
:100B10004900B0FBF1F010BD083802400024F40099
:100B200040787D012DE9F84F04006ED02078DFF881
:100B30004C93C007A9F104054AD009F104000168EB
:100B4000C1F38101012908D00068C0F381000228A7
:100B50000AD1D9F80000400206D52868800337D5AD
:100B600060680028E1D033E06068B0F5803F10D0C5
:100B7000B0F5A02F286810D020F4803028602868B5
:100B800020F4802028606068A8B1FFF73FFE064689
:100B90000DE0286840F48030F4E740F480202860BD
:100BA000F7E700BFFFF732FE801B642873D8286880
:100BB0008003F7D50CE0FFF729FE064605E000BFED
:100BC000FFF724FE801B6428F0D828688003F7D440
:100BD0002078DFF8AC8280074FF0000A3ED5A748A6
:100BE000001D016811F00C0F08D00068C0F38100EF
:100BF00002280BD1D9F80000400207D428688007EA
:100C000016D5E068012800D112E033E1E068B8B100
:100C10000120C8F80000FFF7F9FD064605E000BF17
:100C2000FFF7F4FD801B0228C0D828688007F7D59D
:100C30002868216920F0F80040EAC10028600DE032
:100C4000C8F800A0FFF7E2FD064604E0FFF7DEFD6E
:100C5000801B02281FD828688007F7D42078000757
:100C600022D5864F87486169703771B101210160D3
:100C7000FFF7CCFD064604E0FFF7C8FD801B022805
:100C800009D838688007F7D50EE0C0F800A0FFF754
:100C9000BDFD064605E082E0FFF7B8FD801B022897
:100CA0007DD838688007F7D42078400768D5DFF80A
:100CB000CCB100270BF13C0BDBF80000C0000BD4DB
:100CC000DBF8001041F08051CBF80010DBF8000099
:100CD000012700F0805000906B4E3068C00510D4A2
:100CE000306840F480703060FFF790FD009005E0C0
:100CF000FFF78CFD0099401A022850D83068C005D3
:100D0000F6D55E4EA0686C3601280FD005283068F5
:100D100010D020F001003060306820F00400306016
:100D2000A068B8B1FFF772FD00900FE0306840F0A6
:100D30000100F4E740F004003060F7E7FFF766FDDC
:100D40000099411A41F28830814266D830688007A4
:100D5000F4D50EE0FFF75AFD009007E0FFF756FDCF
:100D60000099411A41F28830814256D83068800794
:100D7000F4D42FB1DBF8001021F08051CBF8001033
:100D8000A069C8B33D49091D0968C1F38101022961
:100D90004AD00228504607D0C8F8600000E03CE086
:100DA000FFF734FD04463BE04746C8F86000FFF714
:100DB0002DFD064605E000BFFFF728FD801B022839
:100DC0002BD828688001F7D4D4E907010843A16A29
:100DD0002E4A490802EB0141626A41EA8211084346
:100DE00094F82C1040EA0161C9F80010012038661F
:100DF000FFF70CFD044606E03EE000BFFFF706FDEE
:100E0000001B022809D828688001F7D534E000BF0C
:100E1000FFF7FCFC001B022802D90320BDE8F88F75
:100E200028688001F4D427E00128F7D0D9F8000021
:100E3000E26900F4800191421CD1226A00F03F0176
:100E4000914217D147F6C071626A0140B1EB821F2F
:100E500010D1A26A4FF0FF3300F4403103EB52028D
:100E6000B1EB024F06D194F82C1000F07060B0EB9B
:100E7000016F01D00120D1E70020CFE70438024004
:100E800000004742800E4742007000400000FFFF14
:100E900010B5401EB0F1807F01D3012010BD4FF08E
:100EA000E02460610F21601700F05EFD0020A0616A
:100EB00007202061002010BD70477047F8B5016819
:100EC00004460868CA684B6910F00F0F4FF0000520
:100ED0005AD003F0010602F49077374365D0C1077A
:100EE00005D0D10503D5216C41F0010121644107F2
:100EF00005D5D90703D0216C41F002012164810797
:100F000005D5D90703D0216C41F004012164010704
:100F100007D502F02001314303D0216C41F00801D4
:100F20002164216C00293BD0800604D5900602D5AF
:100F3000204600F0C6FB20684069216CC0F3801099
:100F400001F00801014320462BD000F093FB2068FC
:100F50004069400621D52068143050E8001F21F078
:100F6000400140E80012002AF5D1A06BA8B16C49FD
:100F70000165A06BFFF727FB002811D0A06B016D66
:100F800001B0BDE8F040084783060ED593060CD5A6
:100F90002046BDE8F84000F094BB2046FFF78DFFE7
:100FA000F8BDFFF78AFF2564F8BD266B2023012ECC
:100FB00079D1C60677D5D60675D5086848680090F9
:100FC0004869400640D5A16B086840680004000CE1
:100FD000EAD0A28D8242E7D9E085C869B0F5807F6A
:100FE0002DD020680C3050E8001F21F4807140E8BB
:100FF0000012002AF5D12068143050E8001F21F0BB
:10100000010140E80012002AF5D12068143050E8B0
:10101000001F21F0400140E80012002AF5D184F8B9
:101020003E30256320680C3050E8001F21F010018D
:1010300040E80012002AF5D1A06BFFF77BFAA08DE3
:10104000E18D401A81B229E0A08DE18D401A81B274
:10105000E08D0028A8D00029A6D020680C3050E8E8
:10106000002F22F4907240E80026002EF5D120686F
:10107000143050E8002F22F0010240E80026002E34
:10108000F5D184F83E30256320680C3050E8002FFD
:1010900022F0100240E80023002BF5D12046FFF794
:1010A0000BFFF8BDFFE705062BD5150629D594F8EB
:1010B0003D002128F5D1A068B0F5805F01D12069FD
:1010C000B0B1206A411C2162216800784860E08C40
:1010D000401E0004000CE084E3D12068C16821F0C8
:1010E0008001C1602068C16841F04001C160D8E75B
:1010F000206A0088C0F308004860206A801C2062D3
:10110000E5E74006CDD55006CBD5CA68204622F08B
:101110004002CA6084F83D3000F09CF8C1E700004E
:101120006516000870B5040004D094F83D00002551
:1011300010B106E0012070BD84F83C50204600F05C
:1011400023F8242084F83D002068C16821F4005170
:10115000C160204600F016FB2068016921F490412F
:1011600001612068416921F02A0141612068C1685C
:1011700041F40051C1602564202084F83D0084F8CA
:101180003E00002070BD000010B586B0044614215A
:101190006846FFF7E0F817492068884228D11648CA
:1011A0000021026842F400320260006800F400305E
:1011B000059011481038026842F008020260006889
:1011C00000F008000590602000900220CDE90101A8
:1011D000032003900720049069460848FFF718FA97
:1011E000002211462620FFF77FFB2620FFF76EFB2B
:1011F00006B010BD0044004040380240000C0240E0
:1012000090F83E30202B0ED159B152B190F83C30BD
:10121000012B08D0012380F83C300023036300F049
:1012200037BB0120704702207047000010B5012233
:1012300006490748FFF7E4FF04480078012803D176
:10124000BDE8104000F0E5BC10BD00001C0000200F
:10125000300000207047FEE72DE9F04F87B01421E1
:101260006846FFF778F83C48016841F004010160E6
:10127000016801F004010591016841F080010160FD
:10128000016801F080010591016841F001010160F0
:10129000016801F001010591016841F00801016058
:1012A000016801F008010591016841F00201016047
:1012B000016801F002010591016841F0100101602F
:1012C0000068DFF8988000F0100040F2FC74059090
:1012D000002221464046FFF793FADFF884904FF44E
:1012E0006046002231464846FFF78AFADFF874A0CC
:1012F0004FF44077002239465046FFF781FADFF875
:1013000068B0002201215846FFF77AFA00940124C0
:101310000325694640460194CDE90245FFF778F977
:10132000CDE9006469464846CDE90245FFF770F90A
:10133000CDE9007469465046CDE90245FFF768F9EA
:101340000094694658460194CDE90245FFF760F9DB
:1013500007B0BDE8F08F00003038024000000240C6
:10136000000C024000040240001002400C4810B57E
:101370000A4901604FF4E1314160002181600C2293
:10138000C160C0E904128161C161FFF7CBFE002892
:1013900003D0BDE81040FFF740B810BD0044004046
:1013A00030000020FEE7FEE77047000010B5094C52
:1013B00001222188A068FFF723FA062000F062FBD3
:1013C00000222188A068FFF71BFABDE81040152015
:1013D00000F058BB0000002010B5094C0122218804
:1013E000A068FFF70DFA192000F04CFB00222188BD
:1013F000A068FFF705FABDE81040032000F042BBEB
:101400000000002070B514460D4600F008F828468C
:1014100000F005F82046BDE87040AFF3008070B5DD
:1014200004460025200602D5FFF7D6FF01E0FFF7AE
:10143000BDFF60066D1C040EEDB2082DF2D370BD29
:1014400010B5094C01226188E068FFF7D9F9062040
:1014500000F018FB00226188E068FFF7D1F9BDE8D1
:101460001040152000F00EBB0000002010B5094C04
:1014700001226188E068FFF7C3F9192000F002FB40
:1014800000226188E068FFF7BBF9BDE81040032047
:1014900000F0F8BA0000002070B514460D4600F0C8
:1014A00008F8284600F005F82046BDE87040AFF384
:1014B000008070B504460025200602D5FFF7D6FF50
:1014C00001E0FFF7BDFF60066D1C040EEDB2082DB4
:1014D000F2D370BD10B5094C0122A1882069FFF735
:1014E0008FF9062000F0CEFA0022A1882069FFF7CC
:1014F00087F9BDE81040152000F0C4BA00000020B4
:1015000010B5094C0122A1882069FFF779F919204B
:1015100000F0B8FA0022A1882069FFF771F9BDE850
:101520001040032000F0AEBA0000002070B5144651
:101530000D4600F008F8284600F005F82046BDE802
:101540007040AFF3008070B504460025200602D538
:10155000FFF7D6FF01E0FFF7BDFF60066D1C040E2C
:10156000EDB2082DF2D370BD10B500F0F2FA642090
:10157000FFF73CF800F08CFB6420FFF737F800F031
:1015800023FC6420FFF732F800F017FB6420FFF71C
:101590002DF800F07DFA6420FFF728F800F0DCFB5E
:1015A0006420FFF723F800F0A1FBBDE810406420A1
:1015B000FFF71CB87047FFF72FB9000030B593B0A4
:1015C00030216846FEF7C7FE14210CA8FEF7C3FEC3
:1015D0001E480025016841F080510160006800F05C
:1015E000805011901A48016841F480410160006800
:1015F000022400F48040119001200090000401902A
:101600008001CDE90640192008904FF4A870CDE97B
:10161000090404200B906846FFF784FA08B172B6FB
:10162000FEE70CA90F2081E831004FF4A0500F9085
:101630004FF48050109005210CA8FFF787F900287F
:1016400001D072B6FEE713B030BD00004038024052
:10165000007000400248016841F470010160704769
:1016600088ED00E010B5806B0021C185C184FFF7D3
:1016700024FC10BD01680C3151E8002F22F4907257
:1016800041E80023002BF5D10168143151E8002F07
:1016900022F0010241E80023002BF5D1016B012962
:1016A00009D101680C3151E8002F22F0100241E805
:1016B0000023002BF5D1202180F83E10002101638A
:1016C000704708B590F83E10222901D0022008BDCD
:1016D00082684FF480539A4201D1016921B1816A35
:1016E0009A421BD04AB10AE00268816A5268C2F38A
:1016F00008020A80816A891C08E0026972B10268E6
:10170000526802F07F020A70816A491C8162C18DB1
:10171000491E0904090CC18503D019E0026852680A
:10172000F1E70168CA6822F02002CA600168CA684D
:1017300022F48072CA6001684A6922F001024A619B
:10174000202180F83E10016B012903D0FFF76EFDC8
:10175000002008BD0021016301680C3151E8002F11
:1017600022F0100241E80023002BF5D101680A683D
:10177000D20602D50A6849680091818DFFF79CFB6B
:10178000E6E7000070B5044600680169E26821F4EC
:101790004051114301612169A068E2690843616910
:1017A000114308432168CA6849F20C639A43024313
:1017B000CA6020684169A26921F440711143416106
:1017C00031492068884202D03049884202D1FFF76F
:1017D00067F901E0FFF754F9E26900231921642554
:1017E0003226B2F5004F626828D0A0FB0101930FAA
:1017F0009200FEF739FD0146B0FBF5F06FF01802DC
:10180000504301EB800006EB0010B0FBF5F000F058
:10181000F002B1FBF5F002EB0012B1FBF5F06FF056
:101820001803584301EB800006EB0010B0FBF5F005
:1018300000F00F0021681044886070BDA0FB01011A
:1018400092185B41FEF710FD0146B0FBF5F0020176
:10185000B1FBF5F06FF01803584301EB800006EB85
:10186000C000B0FBF5F000F0F80002EB4002B1FB65
:10187000F5F0584301EB800006EBC000B0FBF5F03B
:1018800000F00700D6E700000010014000140140FE
:1018900081628285C28500210164222280F83E2077
:1018A00080F83C100168CA6842F48072CA6001681E
:1018B0004A6942F001024A610068C16841F02001B2
:1018C000C1600020704700000148FFF7F7BA000030
:1018D00030000020FEE700002DE9F04101244FF424
:1018E000D978204600F070F801273E463D46002298
:1018F00011461046FFF786FD7F1C822FF7DD474615
:10190000002211461046FFF7C7FD761CBE42F7DDE8
:10191000002211461046FFF709FE6D1C902DF7DDE1
:10192000641C062CDDDB0A49084808600949086088
:101930000949086009492020088009494020088099
:10194000084980200880BDE8F081000000000240C6
:10195000080000200C0000201000002000000020E3
:1019600002000020040000200907090E002804DB03
:1019700000F1E02080F80014704700F00F0000F143
:10198000E02080F8141D704770B501252C4601E059
:10199000442D02DC0022114601E00022FF2100203C
:1019A000FFF730FD6D1C822DF2DD01E0442C02DCDE
:1019B0000022114601E00022FF210020FFF7B6FDC2
:1019C000641C902CF2DD70BD2DE9F0432349244ABC
:1019D000244B254C254D264E264F4FF4807C4FF44A
:1019E000007906282BD2DFE800F02A030C15202C02
:1019F00011601960202021602880402030808020E4
:101A00001CE01160196010202160288008203080BF
:101A1000042013E018481060186020604FF4004064
:101A2000288040103080401008E01160196021606B
:101A3000A5F800C0A6F800904FF480603880BDE89B
:101A4000F0830E4810600E48186020600120288046
:101A5000A6F80090A7F800C0F1E7000000000240DF
:101A6000080000200C0000201000002000000020D2
:101A70000200002004000020000C02400010024080
:101A80000004024001E0401E80B20028FBD17047F4
:101A90002DE9F041042401250BE0082C01D101249B
:101AA00007E0052C05DB0022FF211046FFF7F4FCC0
:101AB0000AE0002211461046FFF7EEFC40F237160E
:101AC00040F275174FF4D9786D1C3F2D09D07D2D4C
:101AD0000BD0BB2D07D0F92D07D0B54207D1042478
:101AE000DFE70524DDE70624DBE70224D9E7BD4272
:101AF00001D10424DDE7641C4545CEDDBDE8F0815D
:101B00002DE9F04101244FF4D9782046FFF75CFF1E
:101B100001273E463D460022FF211046FFF772FC9A
:101B20007F1C902FF7DD47460022FF211046FFF76C
:101B3000B3FC761CBE42F7DD0022FF211046FFF702
:101B4000F5FC6D1C822DF7DD641C062CDDDBBDE889
:101B5000F0812DE9F0410124254609E0082C25D02B
:101B6000052C05DB0022FF211046FFF795FC0AE05B
:101B7000002211461046FFF78FFC40F2371640F264
:101B800075174FF4D9786D1C3F2D07D07D2D09D0E6
:101B9000BB2D05D0F92D05D0B54205D10724DFE7CF
:101BA0000224DDE70624DBE7BD4201D10124DFE7A3
:101BB000641C4545D2DDBDE8F08170B505240125E2
:101BC00005E0082C01D1012404E0052C02DB0022F1
:101BD000FF2101E0002211460020FFF75DFC6D1C93
:101BE0003F2D10D07D2D0ED0BB2D0ED0F92D0AD05B
:101BF000A5F58070373806D03E3808D0641CB5F59E
:101C0000D97FDEDD70BD0324DFE70524DDE7052491
:101C1000DDE770B50126354634460022FF21104627
:101C2000FFF7F0FB761C902EF7DD4FF4D9760022FB
:101C3000FF211046FFF730FC6D1CB542F7DD002296
:101C4000FF211046FFF772FC641C822CF7DDBDE813
:101C50007040FEF7E5BB0000FEF7E6FDFFF7AEFCC7
:101C6000FFF7FAFAFFF782FBFFF736FE0320FFF7D4
:101C7000ABFE012204490548FFF7C2FAFFF784FED4
:101C8000FFF772FCFAE700001C0000203000002083
:101C900070B50724012505E0082C01D1012404E0DA
:101CA000052C02DB0022FF2101E00022114600206A
:101CB000FFF7F2FB6D1C3F2D10D07D2D12D0BB2DF8
:101CC0000ED0F92D0ED0A5F58070373806D03E38ED
:101CD0000AD0641CB5F5D97FDEDD70BD0124DFE7D5
:101CE0000324DDE70524DBE70724DBE72DE9F041EA
:101CF000022401250BE0082C01D1012407E0052C6A
:101D000005DB0022FF211046FFF7C6FB0AE0002298
:101D100011461046FFF7C0FB40F2371640F2751728
:101D20004FF4D9786D1C3F2D0BD07D2D09D0BB2DE4
:101D300005D0F92D05D0B54205D10624DFE70124F1
:101D4000DDE70724DBE7BD4201D10224DFE7641CA5
:101D50004545D0DDBDE8F0812DE9F04103240125A2
:101D60000BE0082C01D1012407E0052C05DB002243
:101D7000FF211046FFF790FB0AE0002211461046B3
:101D8000FFF78AFB40F2371640F275174FF4D97807
:101D90006D1C3F2D09D07D2D0BD0BB2D07D0F92D0B
:101DA00007D0B54207D10524DFE70624DDE7072485
:101DB000DBE70124D9E7BD4201D10324DDE7641C40
:101DC0004545CEDDBDE8F08170B50624012505E06E
:101DD000082C01D1012404E0052C02DB0022FF21A4
:101DE00001E0002211460020FFF756FB6D1C3F2D3D
:101DF00010D07D2D10D0BB2D0ED0F92D0CD0A5F517
:101E00008070373806D03E3808D0641CB5F5D97FCD
:101E1000DEDD70BD0224DFE70424DDE70624DDE714
:101E20004FF04070E1EE100A704700000000000023
:101E30000000010203040607080900000000010277
:101E400003040000641E00080000002030000000B1
:101E5000C4010008941E000830000020A8060000FD
:101E6000E001000800000000000000000000000089
:101E7000000000000000000001000304020501074B
:101E80000000000001000000100000000000000041
:041E90000024F40036
:040000050800018965
:00000001FF
